:02000000E92FE6
:100E32007C08203E8400831300088312031386007B
:100E42000800C034F934A434B03499349234823472
:100E5200F834803490340330F7007708FC070A3006
:100E6200F7007708F0007C085E27F8007808FC009D
:100E720008007C1C3E2F01303F2F0230F70077081C
:100E8200FC070A30F7007708F0007C085E27F800BC
:100E92007808FC0008007C18502F0130512F0230D6
:100EA200F7007708FC070A30F7007708F0007C08A3
:100EB2005E27F8007808FC000800F4000830F10012
:100EC2007108F500F6017408F10007300310F10C07
:100ED200FF3E031D672F7608F20072077104F300CC
:100EE2007308F6000310F40D70087602031C7B2FC2
:100EF2007008F6020130F502031D642F760808001F
:100F02000730831203139F00831603138E150730D5
:100F12008500860183120313850186018312031360
:100F22000518AE2F0D30FA00FB30F900F90B972FA0
:100F3200FA0B972F9C2F831203130518E72F4C27C8
:100F42000230FB008630FA009930F900F90BA72F26
:100F5200FA0BA72FFB0BA72FE72F8518CB2F0D30EE
:100F6200FA00FB30F900F90BB42FFA0BB42FB92FAA
:100F7200831203138518E72F3A270230FB008630CD
:100F8200FA009930F900F90BC42FFA0BC42FFB0BAE
:100F9200C42FE72F0519E72F0D30FA00FB30F900B7
:100FA200F90BD12FFA0BD12FD62F83120313051968
:100FB200E72F2C270230FB008630FA009930F90027
:100FC200F90BE12FFA0BE12FFB0BE12F19278F2FE2
:100FD2002227A0002327A1002427A2002527A3005F
:100FE2002627A4002727A5002827A6002927A7002F
:0E0FF2002A27A8002B27A900FC018301812FCC
:02400E0018FF99
:00000001FF
